{
  "contractName": "Greeter",
  "abi": [
    {
      "constant": false,
      "inputs": [],
      "name": "kill",
      "outputs": [],
      "payable": false,
      "stateMutability": "nonpayable",
      "type": "function"
    },
    {
      "constant": true,
      "inputs": [],
      "name": "greet",
      "outputs": [
        {
          "name": "",
          "type": "string"
        }
      ],
      "payable": false,
      "stateMutability": "view",
      "type": "function"
    },
    {
      "constant": false,
      "inputs": [
        {
          "name": "_newGreeting",
          "type": "string"
        }
      ],
      "name": "setGreeting",
      "outputs": [],
      "payable": false,
      "stateMutability": "nonpayable",
      "type": "function"
    }
  ],
  "bytecode": "0x6080604052336000806101000a81548173ffffffffffffffffffffffffffffffffffffffff021916908373ffffffffffffffffffffffffffffffffffffffff160217905550610369806100536000396000f300608060405260043610610057576000357c0100000000000000000000000000000000000000000000000000000000900463ffffffff16806341c0e1b51461005c578063a413686214610073578063cfae3217146100dc575b600080fd5b34801561006857600080fd5b5061007161016c565b005b34801561007f57600080fd5b506100da600480360381019080803590602001908201803590602001908080601f01602080910402602001604051908101604052809392919081815260200183838082843782019150505050505091929192905050506101dc565b005b3480156100e857600080fd5b506100f16101f6565b6040518080602001828103825283818151815260200191508051906020019080838360005b83811015610131578082015181840152602081019050610116565b50505050905090810190601f16801561015e5780820380516001836020036101000a031916815260200191505b509250505060405180910390f35b6000809054906101000a900473ffffffffffffffffffffffffffffffffffffffff1673ffffffffffffffffffffffffffffffffffffffff163373ffffffffffffffffffffffffffffffffffffffff1614156101da573373ffffffffffffffffffffffffffffffffffffffff16ff5b565b80600190805190602001906101f2929190610298565b5050565b606060018054600181600116156101000203166002900480601f01602080910402602001604051908101604052809291908181526020018280546001816001161561010002031660029004801561028e5780601f106102635761010080835404028352916020019161028e565b820191906000526020600020905b81548152906001019060200180831161027157829003601f168201915b5050505050905090565b828054600181600116156101000203166002900490600052602060002090601f016020900481019282601f106102d957805160ff1916838001178555610307565b82800160010185558215610307579182015b828111156103065782518255916020019190600101906102eb565b5b5090506103149190610318565b5090565b61033a91905b8082111561033657600081600090555060010161031e565b5090565b905600a165627a7a72305820428dc8839f73652c8ebd7be2f369cf564869d540226793373a029c459eac11260029",
  "source": "// https://www.ethereum.org/greeter\r\n\r\npragma solidity >=0.4.22 <0.6.0;\r\n \r\n contract Mortal {\r\n    /* Define variable owner of the type address */\r\n    address owner;\r\n     /* This constructor is executed at initialization and sets the owner of the contract */\r\n   \r\n    constructor() public { owner = msg.sender; }\r\n   \r\n     /* Function to recover the funds on the contract */\r\n    function kill() public { if (msg.sender == owner) selfdestruct(msg.sender); }\r\n}\r\ncontract Greeter is Mortal {\r\n    /* Define variable greeting of the type string */\r\n    string greeting;\r\n     /* This runs when the contract is executed */\r\n     \r\n     /* Main function */\r\n    function greet() public view returns (string memory) {\r\n        return greeting;\r\n    }\r\n    /* setting up a new greet message*/\r\n    \r\n    function setGreeting(string memory _newGreeting) public {\r\n        greeting = _newGreeting;\r\n    }\r\n} ",
  "sourcePath": "C:\\Users\\User\\Desktop\\code lagos smart contract project\\contracts\\Greeter.sol",
  "compiler": {
    "name": "solc",
    "version": "0.4.24+commit.e67f0147.Emscripten.clang"
  },
  "schemaVersion": "2.0.1",
  "updatedAt": "2018-12-15T15:48:47.372Z"
}