{
  "contractName": "Mortal",
  "abi": [
    {
      "inputs": [],
      "payable": false,
      "stateMutability": "nonpayable",
      "type": "constructor"
    },
    {
      "constant": false,
      "inputs": [],
      "name": "kill",
      "outputs": [],
      "payable": false,
      "stateMutability": "nonpayable",
      "type": "function"
    }
  ],
  "bytecode": "0x608060405234801561001057600080fd5b50336000806101000a81548173ffffffffffffffffffffffffffffffffffffffff021916908373ffffffffffffffffffffffffffffffffffffffff16021790555060f38061005f6000396000f300608060405260043610603f576000357c0100000000000000000000000000000000000000000000000000000000900463ffffffff16806341c0e1b5146044575b600080fd5b348015604f57600080fd5b5060566058565b005b6000809054906101000a900473ffffffffffffffffffffffffffffffffffffffff1673ffffffffffffffffffffffffffffffffffffffff163373ffffffffffffffffffffffffffffffffffffffff16141560c5573373ffffffffffffffffffffffffffffffffffffffff16ff5b5600a165627a7a723058206a09f002dafd5ddd5b27daa142a78e6abd12556ca87dd8bdfcfa98225c97fea30029",
  "source": "// https://www.ethereum.org/greeter\r\n\r\npragma solidity >=0.4.22 <0.6.0;\r\n \r\n contract Mortal {\r\n    /* Define variable owner of the type address */\r\n    address owner;\r\n     /* This constructor is executed at initialization and sets the owner of the contract */\r\n   \r\n    constructor() public { owner = msg.sender; }\r\n   \r\n     /* Function to recover the funds on the contract */\r\n    function kill() public { if (msg.sender == owner) selfdestruct(msg.sender); }\r\n}\r\ncontract Greeter is Mortal {\r\n    /* Define variable greeting of the type string */\r\n    string greeting;\r\n     /* This runs when the contract is executed */\r\n     \r\n     /* Main function */\r\n    function greet() public view returns (string memory) {\r\n        return greeting;\r\n    }\r\n    /* setting up a new greet message*/\r\n    \r\n    function setGreeting(string memory _newGreeting) public {\r\n        greeting = _newGreeting;\r\n    }\r\n} ",
  "sourcePath": "C:\\Users\\User\\Desktop\\code lagos smart contract project\\contracts\\Greeter.sol",
  "compiler": {
    "name": "solc",
    "version": "0.4.24+commit.e67f0147.Emscripten.clang"
  },
  "schemaVersion": "2.0.1",
  "updatedAt": "2018-12-15T15:48:15.247Z"
}